{
  "_format": "hh-sol-artifact-1",
  "contractName": "ShippingAgreement",
  "sourceName": "contracts/ShippingAgreement.sol",
  "abi": [
    {
      "inputs": [
        {
          "internalType": "address",
          "name": "_shipper",
          "type": "address"
        },
        {
          "internalType": "address",
          "name": "_recipient",
          "type": "address"
        },
        {
          "internalType": "address",
          "name": "_reward_token_address",
          "type": "address"
        },
        {
          "internalType": "uint256",
          "name": "_reward_amount",
          "type": "uint256"
        },
        {
          "internalType": "address",
          "name": "_package_address",
          "type": "address"
        }
      ],
      "stateMutability": "payable",
      "type": "constructor"
    },
    {
      "anonymous": false,
      "inputs": [
        {
          "indexed": true,
          "internalType": "address",
          "name": "previousOwner",
          "type": "address"
        },
        {
          "indexed": true,
          "internalType": "address",
          "name": "newOwner",
          "type": "address"
        }
      ],
      "name": "OwnershipTransferred",
      "type": "event"
    },
    {
      "inputs": [],
      "name": "getDeliverySummary",
      "outputs": [
        {
          "internalType": "uint256",
          "name": "",
          "type": "uint256"
        },
        {
          "internalType": "uint256",
          "name": "",
          "type": "uint256"
        },
        {
          "internalType": "uint256",
          "name": "",
          "type": "uint256"
        },
        {
          "internalType": "uint256",
          "name": "",
          "type": "uint256"
        },
        {
          "internalType": "uint256",
          "name": "",
          "type": "uint256"
        },
        {
          "internalType": "uint256",
          "name": "",
          "type": "uint256"
        },
        {
          "internalType": "uint256",
          "name": "",
          "type": "uint256"
        }
      ],
      "stateMutability": "view",
      "type": "function"
    },
    {
      "inputs": [],
      "name": "owner",
      "outputs": [
        {
          "internalType": "address",
          "name": "",
          "type": "address"
        }
      ],
      "stateMutability": "view",
      "type": "function"
    },
    {
      "inputs": [],
      "name": "package_address",
      "outputs": [
        {
          "internalType": "address",
          "name": "",
          "type": "address"
        }
      ],
      "stateMutability": "view",
      "type": "function"
    },
    {
      "inputs": [
        {
          "internalType": "uint256",
          "name": "_temp",
          "type": "uint256"
        },
        {
          "internalType": "uint256",
          "name": "_acc",
          "type": "uint256"
        },
        {
          "internalType": "string",
          "name": "_signature",
          "type": "string"
        }
      ],
      "name": "receiveShipment",
      "outputs": [],
      "stateMutability": "nonpayable",
      "type": "function"
    },
    {
      "inputs": [],
      "name": "recipient",
      "outputs": [
        {
          "internalType": "address",
          "name": "",
          "type": "address"
        }
      ],
      "stateMutability": "view",
      "type": "function"
    },
    {
      "inputs": [],
      "name": "renounceOwnership",
      "outputs": [],
      "stateMutability": "nonpayable",
      "type": "function"
    },
    {
      "inputs": [],
      "name": "reset",
      "outputs": [],
      "stateMutability": "nonpayable",
      "type": "function"
    },
    {
      "inputs": [],
      "name": "sender",
      "outputs": [
        {
          "internalType": "address payable",
          "name": "",
          "type": "address"
        }
      ],
      "stateMutability": "view",
      "type": "function"
    },
    {
      "inputs": [],
      "name": "shipper",
      "outputs": [
        {
          "internalType": "address payable",
          "name": "",
          "type": "address"
        }
      ],
      "stateMutability": "view",
      "type": "function"
    },
    {
      "inputs": [],
      "name": "state",
      "outputs": [
        {
          "internalType": "enum ShippingAgreement.shipping_states",
          "name": "",
          "type": "uint8"
        }
      ],
      "stateMutability": "view",
      "type": "function"
    },
    {
      "inputs": [
        {
          "internalType": "address",
          "name": "newOwner",
          "type": "address"
        }
      ],
      "name": "transferOwnership",
      "outputs": [],
      "stateMutability": "nonpayable",
      "type": "function"
    },
    {
      "inputs": [],
      "name": "withdraw_fees",
      "outputs": [],
      "stateMutability": "nonpayable",
      "type": "function"
    },
    {
      "inputs": [],
      "name": "withdraw_penalty",
      "outputs": [],
      "stateMutability": "nonpayable",
      "type": "function"
    },
    {
      "inputs": [],
      "name": "withdraw_reward",
      "outputs": [],
      "stateMutability": "nonpayable",
      "type": "function"
    }
  ],
  "bytecode": "0x6080604052603c600155600280556000600c556040516200223a3803806200223a83398181016040528101906200003791906200044a565b620000576200004b620002d960201b60201c565b620002e160201b60201c565b33600660006101000a81548173ffffffffffffffffffffffffffffffffffffffff021916908373ffffffffffffffffffffffffffffffffffffffff16021790555084600760006101000a81548173ffffffffffffffffffffffffffffffffffffffff021916908373ffffffffffffffffffffffffffffffffffffffff16021790555083600860006101000a81548173ffffffffffffffffffffffffffffffffffffffff021916908373ffffffffffffffffffffffffffffffffffffffff16021790555080600560006101000a81548173ffffffffffffffffffffffffffffffffffffffff021916908373ffffffffffffffffffffffffffffffffffffffff16021790555082600a60006101000a81548173ffffffffffffffffffffffffffffffffffffffff021916908373ffffffffffffffffffffffffffffffffffffffff16021790555081600981905550600a60009054906101000a900473ffffffffffffffffffffffffffffffffffffffff1673ffffffffffffffffffffffffffffffffffffffff1663a9059cbb306009546040518363ffffffff1660e01b815260040162000204929190620004f4565b6020604051808303816000875af115801562000224573d6000803e3d6000fd5b505050506040513d601f19601f820116820180604052508101906200024a91906200055e565b6200028c576040517f08c379a00000000000000000000000000000000000000000000000000000000081526004016200028390620005f1565b60405180910390fd5b6064826200029b919062000642565b600b8190555060008060146101000a81548160ff02191690836001811115620002c957620002c86200067a565b5b02179055505050505050620006a9565b600033905090565b60008060009054906101000a900473ffffffffffffffffffffffffffffffffffffffff169050816000806101000a81548173ffffffffffffffffffffffffffffffffffffffff021916908373ffffffffffffffffffffffffffffffffffffffff1602179055508173ffffffffffffffffffffffffffffffffffffffff168173ffffffffffffffffffffffffffffffffffffffff167f8be0079c531659141344cd1fd0a4f28419497f9722a3daafe3b4186f6b6457e060405160405180910390a35050565b600080fd5b600073ffffffffffffffffffffffffffffffffffffffff82169050919050565b6000620003d782620003aa565b9050919050565b620003e981620003ca565b8114620003f557600080fd5b50565b6000815190506200040981620003de565b92915050565b6000819050919050565b62000424816200040f565b81146200043057600080fd5b50565b600081519050620004448162000419565b92915050565b600080600080600060a08688031215620004695762000468620003a5565b5b60006200047988828901620003f8565b95505060206200048c88828901620003f8565b94505060406200049f88828901620003f8565b9350506060620004b28882890162000433565b9250506080620004c588828901620003f8565b9150509295509295909350565b620004dd81620003ca565b82525050565b620004ee816200040f565b82525050565b60006040820190506200050b6000830185620004d2565b6200051a6020830184620004e3565b9392505050565b60008115159050919050565b620005388162000521565b81146200054457600080fd5b50565b60008151905062000558816200052d565b92915050565b600060208284031215620005775762000576620003a5565b5b6000620005878482850162000547565b91505092915050565b600082825260208201905092915050565b7f4465706f736974696e6720726577617264206661696c65640000000000000000600082015250565b6000620005d960188362000590565b9150620005e682620005a1565b602082019050919050565b600060208201905081810360008301526200060c81620005ca565b9050919050565b7f4e487b7100000000000000000000000000000000000000000000000000000000600052601260045260246000fd5b60006200064f826200040f565b91506200065c836200040f565b9250826200066f576200066e62000613565b5b828204905092915050565b7f4e487b7100000000000000000000000000000000000000000000000000000000600052602160045260246000fd5b611b8180620006b96000396000f3fe608060405234801561001057600080fd5b50600436106100ea5760003560e01c8063c19d93fb1161008c578063dbb151f011610066578063dbb151f0146101cb578063e9a7897e146101e7578063eaa0ee92146101f1578063f2fde38b14610215576100ea565b8063c19d93fb14610199578063d274c3f5146101b7578063d826f88f146101c1576100ea565b8063715018a6116100c8578063715018a6146101355780638da5cb5b1461013f578063b8c680a01461015d578063c18ed1a11461017b576100ea565b806366d003ac146100ef5780636787335c1461010d57806367e404ce14610117575b600080fd5b6100f7610231565b60405161010491906110e3565b60405180910390f35b610115610257565b005b61011f61043f565b60405161012c919061111f565b60405180910390f35b61013d610465565b005b610147610479565b60405161015491906110e3565b60405180910390f35b6101656104a2565b60405161017291906110e3565b60405180910390f35b6101836104c8565b604051610190919061111f565b60405180910390f35b6101a16104ee565b6040516101ae91906111b1565b60405180910390f35b6101bf610501565b005b6101c9610661565b005b6101e560048036038101906101e09190611271565b6106ae565b005b6101ef610981565b005b6101f9610b69565b60405161020c97969594939291906112f4565b60405180910390f35b61022f600480360381019061022a919061138f565b610c15565b005b600860009054906101000a900473ffffffffffffffffffffffffffffffffffffffff1681565b600660009054906101000a900473ffffffffffffffffffffffffffffffffffffffff1673ffffffffffffffffffffffffffffffffffffffff163373ffffffffffffffffffffffffffffffffffffffff16146102e7576040517f08c379a00000000000000000000000000000000000000000000000000000000081526004016102de90611419565b60405180910390fd5b6001808111156102fa576102f961113a565b5b600060149054906101000a900460ff16600181111561031c5761031b61113a565b5b1461035c576040517f08c379a000000000000000000000000000000000000000000000000000000000815260040161035390611485565b60405180910390fd5b600a60009054906101000a900473ffffffffffffffffffffffffffffffffffffffff1673ffffffffffffffffffffffffffffffffffffffff1663a9059cbb33600c546040518363ffffffff1660e01b81526004016103bb9291906114a5565b6020604051808303816000875af11580156103da573d6000803e3d6000fd5b505050506040513d601f19601f820116820180604052508101906103fe9190611506565b61043d576040517f08c379a00000000000000000000000000000000000000000000000000000000081526004016104349061157f565b60405180910390fd5b565b600660009054906101000a900473ffffffffffffffffffffffffffffffffffffffff1681565b61046d610c98565b6104776000610d16565b565b60008060009054906101000a900473ffffffffffffffffffffffffffffffffffffffff16905090565b600560009054906101000a900473ffffffffffffffffffffffffffffffffffffffff1681565b600760009054906101000a900473ffffffffffffffffffffffffffffffffffffffff1681565b600060149054906101000a900460ff1681565b610509610c98565b60018081111561051c5761051b61113a565b5b600060149054906101000a900460ff16600181111561053e5761053d61113a565b5b1461057e576040517f08c379a000000000000000000000000000000000000000000000000000000000815260040161057590611485565b60405180910390fd5b600a60009054906101000a900473ffffffffffffffffffffffffffffffffffffffff1673ffffffffffffffffffffffffffffffffffffffff1663a9059cbb33600b546040518363ffffffff1660e01b81526004016105dd9291906114a5565b6020604051808303816000875af11580156105fc573d6000803e3d6000fd5b505050506040513d601f19601f820116820180604052508101906106209190611506565b61065f576040517f08c379a00000000000000000000000000000000000000000000000000000000081526004016106569061157f565b60405180910390fd5b565b6103e86009819055506000600c819055506000600381905550600060048190555060008060146101000a81548160ff021916908360018111156106a7576106a661113a565b5b0217905550565b600860009054906101000a900473ffffffffffffffffffffffffffffffffffffffff1673ffffffffffffffffffffffffffffffffffffffff163373ffffffffffffffffffffffffffffffffffffffff161461073e576040517f08c379a0000000000000000000000000000000000000000000000000000000008152600401610735906115eb565b60405180910390fd5b600560009054906101000a900473ffffffffffffffffffffffffffffffffffffffff1673ffffffffffffffffffffffffffffffffffffffff166107ed858560405160200161078d92919061162c565b6040516020818303038152906040528051906020012084848080601f016020809104026020016040519081016040528093929190818152602001838380828437600081840152601f19601f82011690508083019250505050505050610dda565b73ffffffffffffffffffffffffffffffffffffffff1614610843576040517f08c379a000000000000000000000000000000000000000000000000000000000815260040161083a906116a4565b60405180910390fd5b6001548411156108935760006001548561085d91906116f3565b9050606460095461086e9190611756565b816108799190611787565b600c600082825461088a91906117c9565b92505081905550505b6002548311156108e3576000600254846108ad91906116f3565b9050600a6009546108be9190611756565b816108c99190611787565b600c60008282546108da91906117c9565b92505081905550505b600b546009546108f391906116f3565b600c541061091e576000600981905550600b5460095461091391906116f3565b600c81905550610942565b600c54600b5460095461093191906116f3565b61093b91906116f3565b6009819055505b83600381905550826004819055506001600060146101000a81548160ff021916908360018111156109765761097561113a565b5b021790555050505050565b600760009054906101000a900473ffffffffffffffffffffffffffffffffffffffff1673ffffffffffffffffffffffffffffffffffffffff163373ffffffffffffffffffffffffffffffffffffffff1614610a11576040517f08c379a0000000000000000000000000000000000000000000000000000000008152600401610a0890611849565b60405180910390fd5b600180811115610a2457610a2361113a565b5b600060149054906101000a900460ff166001811115610a4657610a4561113a565b5b14610a86576040517f08c379a0000000000000000000000000000000000000000000000000000000008152600401610a7d90611485565b60405180910390fd5b600a60009054906101000a900473ffffffffffffffffffffffffffffffffffffffff1673ffffffffffffffffffffffffffffffffffffffff1663a9059cbb336009546040518363ffffffff1660e01b8152600401610ae59291906114a5565b6020604051808303816000875af1158015610b04573d6000803e3d6000fd5b505050506040513d601f19601f82011682018060405250810190610b289190611506565b610b67576040517f08c379a0000000000000000000000000000000000000000000000000000000008152600401610b5e9061157f565b60405180910390fd5b565b6000806000806000806000600180811115610b8757610b8661113a565b5b600060149054906101000a900460ff166001811115610ba957610ba861113a565b5b14610be9576040517f08c379a0000000000000000000000000000000000000000000000000000000008152600401610be090611485565b60405180910390fd5b600354600154600454600254600954600c54600b54965096509650965096509650965090919293949596565b610c1d610c98565b600073ffffffffffffffffffffffffffffffffffffffff168173ffffffffffffffffffffffffffffffffffffffff1603610c8c576040517f08c379a0000000000000000000000000000000000000000000000000000000008152600401610c83906118db565b60405180910390fd5b610c9581610d16565b50565b610ca0610e01565b73ffffffffffffffffffffffffffffffffffffffff16610cbe610479565b73ffffffffffffffffffffffffffffffffffffffff1614610d14576040517f08c379a0000000000000000000000000000000000000000000000000000000008152600401610d0b90611947565b60405180910390fd5b565b60008060009054906101000a900473ffffffffffffffffffffffffffffffffffffffff169050816000806101000a81548173ffffffffffffffffffffffffffffffffffffffff021916908373ffffffffffffffffffffffffffffffffffffffff1602179055508173ffffffffffffffffffffffffffffffffffffffff168173ffffffffffffffffffffffffffffffffffffffff167f8be0079c531659141344cd1fd0a4f28419497f9722a3daafe3b4186f6b6457e060405160405180910390a35050565b6000806000610de98585610e09565b91509150610df681610e5a565b819250505092915050565b600033905090565b6000806041835103610e4a5760008060006020860151925060408601519150606086015160001a9050610e3e87828585610fc0565b94509450505050610e53565b60006002915091505b9250929050565b60006004811115610e6e57610e6d61113a565b5b816004811115610e8157610e8061113a565b5b0315610fbd5760016004811115610e9b57610e9a61113a565b5b816004811115610eae57610ead61113a565b5b03610eee576040517f08c379a0000000000000000000000000000000000000000000000000000000008152600401610ee5906119b3565b60405180910390fd5b60026004811115610f0257610f0161113a565b5b816004811115610f1557610f1461113a565b5b03610f55576040517f08c379a0000000000000000000000000000000000000000000000000000000008152600401610f4c90611a1f565b60405180910390fd5b60036004811115610f6957610f6861113a565b5b816004811115610f7c57610f7b61113a565b5b03610fbc576040517f08c379a0000000000000000000000000000000000000000000000000000000008152600401610fb390611ab1565b60405180910390fd5b5b50565b6000807f7fffffffffffffffffffffffffffffff5d576e7357a4501ddfe92f46681b20a08360001c1115610ffb576000600391509150611099565b6000600187878787604051600081526020016040526040516110209493929190611b06565b6020604051602081039080840390855afa158015611042573d6000803e3d6000fd5b505050602060405103519050600073ffffffffffffffffffffffffffffffffffffffff168173ffffffffffffffffffffffffffffffffffffffff160361109057600060019250925050611099565b80600092509250505b94509492505050565b600073ffffffffffffffffffffffffffffffffffffffff82169050919050565b60006110cd826110a2565b9050919050565b6110dd816110c2565b82525050565b60006020820190506110f860008301846110d4565b92915050565b6000611109826110a2565b9050919050565b611119816110fe565b82525050565b60006020820190506111346000830184611110565b92915050565b7f4e487b7100000000000000000000000000000000000000000000000000000000600052602160045260246000fd5b6002811061117a5761117961113a565b5b50565b600081905061118b82611169565b919050565b600061119b8261117d565b9050919050565b6111ab81611190565b82525050565b60006020820190506111c660008301846111a2565b92915050565b600080fd5b600080fd5b6000819050919050565b6111e9816111d6565b81146111f457600080fd5b50565b600081359050611206816111e0565b92915050565b600080fd5b600080fd5b600080fd5b60008083601f8401126112315761123061120c565b5b8235905067ffffffffffffffff81111561124e5761124d611211565b5b60208301915083600182028301111561126a57611269611216565b5b9250929050565b6000806000806060858703121561128b5761128a6111cc565b5b6000611299878288016111f7565b94505060206112aa878288016111f7565b935050604085013567ffffffffffffffff8111156112cb576112ca6111d1565b5b6112d78782880161121b565b925092505092959194509250565b6112ee816111d6565b82525050565b600060e082019050611309600083018a6112e5565b61131660208301896112e5565b61132360408301886112e5565b61133060608301876112e5565b61133d60808301866112e5565b61134a60a08301856112e5565b61135760c08301846112e5565b98975050505050505050565b61136c816110c2565b811461137757600080fd5b50565b60008135905061138981611363565b92915050565b6000602082840312156113a5576113a46111cc565b5b60006113b38482850161137a565b91505092915050565b600082825260208201905092915050565b7f596f7520617265206e6f74207468652073656e64657200000000000000000000600082015250565b60006114036016836113bc565b915061140e826113cd565b602082019050919050565b60006020820190508181036000830152611432816113f6565b9050919050565b7f536869706d656e74206e6f742072656365697665640000000000000000000000600082015250565b600061146f6015836113bc565b915061147a82611439565b602082019050919050565b6000602082019050818103600083015261149e81611462565b9050919050565b60006040820190506114ba60008301856110d4565b6114c760208301846112e5565b9392505050565b60008115159050919050565b6114e3816114ce565b81146114ee57600080fd5b50565b600081519050611500816114da565b92915050565b60006020828403121561151c5761151b6111cc565b5b600061152a848285016114f1565b91505092915050565b7f5769746864726177696e672066656573206661696c6564000000000000000000600082015250565b60006115696017836113bc565b915061157482611533565b602082019050919050565b600060208201905081810360008301526115988161155c565b9050919050565b7f596f7520617265206e6f742074686520726563697069656e7400000000000000600082015250565b60006115d56019836113bc565b91506115e08261159f565b602082019050919050565b60006020820190508181036000830152611604816115c8565b9050919050565b6000819050919050565b611626611621826111d6565b61160b565b82525050565b60006116388285611615565b6020820191506116488284611615565b6020820191508190509392505050565b7f496e76616c6964207369676e6174757265000000000000000000000000000000600082015250565b600061168e6011836113bc565b915061169982611658565b602082019050919050565b600060208201905081810360008301526116bd81611681565b9050919050565b7f4e487b7100000000000000000000000000000000000000000000000000000000600052601160045260246000fd5b60006116fe826111d6565b9150611709836111d6565b9250828203905081811115611721576117206116c4565b5b92915050565b7f4e487b7100000000000000000000000000000000000000000000000000000000600052601260045260246000fd5b6000611761826111d6565b915061176c836111d6565b92508261177c5761177b611727565b5b828204905092915050565b6000611792826111d6565b915061179d836111d6565b92508282026117ab816111d6565b915082820484148315176117c2576117c16116c4565b5b5092915050565b60006117d4826111d6565b91506117df836111d6565b92508282019050808211156117f7576117f66116c4565b5b92915050565b7f596f7520617265206e6f74207468652073686970706572000000000000000000600082015250565b60006118336017836113bc565b915061183e826117fd565b602082019050919050565b6000602082019050818103600083015261186281611826565b9050919050565b7f4f776e61626c653a206e6577206f776e657220697320746865207a65726f206160008201527f6464726573730000000000000000000000000000000000000000000000000000602082015250565b60006118c56026836113bc565b91506118d082611869565b604082019050919050565b600060208201905081810360008301526118f4816118b8565b9050919050565b7f4f776e61626c653a2063616c6c6572206973206e6f7420746865206f776e6572600082015250565b60006119316020836113bc565b915061193c826118fb565b602082019050919050565b6000602082019050818103600083015261196081611924565b9050919050565b7f45434453413a20696e76616c6964207369676e61747572650000000000000000600082015250565b600061199d6018836113bc565b91506119a882611967565b602082019050919050565b600060208201905081810360008301526119cc81611990565b9050919050565b7f45434453413a20696e76616c6964207369676e6174757265206c656e67746800600082015250565b6000611a09601f836113bc565b9150611a14826119d3565b602082019050919050565b60006020820190508181036000830152611a38816119fc565b9050919050565b7f45434453413a20696e76616c6964207369676e6174757265202773272076616c60008201527f7565000000000000000000000000000000000000000000000000000000000000602082015250565b6000611a9b6022836113bc565b9150611aa682611a3f565b604082019050919050565b60006020820190508181036000830152611aca81611a8e565b9050919050565b6000819050919050565b611ae481611ad1565b82525050565b600060ff82169050919050565b611b0081611aea565b82525050565b6000608082019050611b1b6000830187611adb565b611b286020830186611af7565b611b356040830185611adb565b611b426060830184611adb565b9594505050505056fea2646970667358221220315d10f354122cc17995afa0110a9f174105dbd0cbbf412e13f8674a669895e264736f6c63430008110033",
  "linkReferences": {},
  "deployedLinkReferences": {}
}